:100000000C945D000C947A000C947A000C947A00A5
:100010000C947A000C947A000C947A000C947A0078
:100020000C947A000C947A000C947A000C947A0068
:100030000C947A000C947A000C947A000C947A0058
:100040000C948B020C947A000C947A000C947A0035
:100050000C947A000C947A000C947A000C947A0038
:100060000C947A000C947A00000000080002010051
:100070000003040700000000000000000000000072
:10008000250028002B0000000000240027002A0083
:10009000040404040404040402020202020203032E
:1000A0000303030301020408102040800102040836
:1000B0001020010204081020610311241FBECFEF9D
:1000C000D8E0DEBFCDBF21E0A0E0B1E001C01D92CD
:1000D000A931B207E1F710E0CDE5D0E004C02197E7
:1000E000FE010E94C903CC35D107C9F70E94D50291
:1000F0000C94CF030C94000090E0FC01EC55FF4FF2
:100100002491FC01E057FF4F8491882399F090E0FF
:10011000880F991FFC01EA57FF4FA591B491FC018C
:10012000E458FF4F859194918FB7F894EC91E22BAE
:10013000EC938FBF089590E0FC01E859FF4F2491A4
:10014000FC01EC55FF4F3491FC01E057FF4FE49167
:10015000EE2309F43CC0222339F1233091F038F426
:100160002130A9F0223001F584B58F7D12C02730EF
:1001700091F02830A1F02430B9F4809180008F7D77
:1001800003C0809180008F77809380000DC084B57C
:100190008F7784BD09C08091B0008F7703C08091B4
:1001A000B0008F7D8093B000F0E0EE0FFF1FE458A9
:1001B000FF4FA591B4919FB7F894611104C08C9141
:1001C0003095382302C0EC913E2B3C939FBF08959D
:1001D0001F93CF93DF93182FEB010E947C00209791
:1001E00011F460E004C0CF3FD10539F461E0812F04
:1001F000DF91CF911F910C949B00E12FF0E0E85923
:10020000FF4FE491E330F9F048F4E130B9F0E23027
:10021000A1F584B5806284BDC8BD34C0E730E9F083
:10022000E83019F1E43049F58091800080628093D4
:100230008000D0938B00C0938A0024C084B580686E
:1002400084BDC7BD1FC080918000806880938000FE
:10025000D0938900C093880015C08091B000806859
:100260008093B000C093B3000DC08091B000806255
:100270008093B000C093B40005C0C038D1050CF025
:10028000B5CFAFCFDF91CF911F910895DF92EF925D
:10029000FF920F931F93CF93DF93C82FD62ED42FA7
:1002A0008FEF68130EC06C2F70E085E00E94E800AD
:1002B00061E086E00E949B006D2F70E089E00E9463
:1002C000E8000D2D10E0CF3F81F4B80186E00E94D8
:1002D000E80061E085E00E949B006D2F70E089E0FE
:1002E0000E94E800DF3FA1F456C0DF3F89F4B80167
:1002F00086E00E94E80061E089E00E949B00EC2E0D
:10030000F12CB70185E00E94E8008FEFD816A9F024
:100310006C2F70E085E00E94E800B80186E00E9442
:10032000E8006D2F70E089E0DF91CF911F910F9170
:10033000FF90EF90DF900C94E800B70185E00E94F9
:10034000E80061E089E00E949B0061E086E00E9495
:100350009B006FEF70E089E00E94E80061E085E0BB
:100360000E949B0061E086E00E949B00CF3F81F6E7
:1003700061E089E00E949B0061E085E00E949B00B3
:1003800061E086E0DF91CF911F910F91FF90EF9098
:10039000DF900C949B00B80186E00E94E80061E0C9
:1003A00089E00E949B006FEF70E085E00E94E8000A
:1003B000B80186E00E94E80061E089E00E949B00AD
:1003C00061E085E00E949B00EE24EA94F12C9DCF31
:1003D0003FB7F8948091050190910601A091070123
:1003E000B091080126B5A89B05C02F3F19F00196D2
:1003F000A11DB11D3FBFBA2FA92F982F8827820FAB
:10040000911DA11DB11DBC01CD0142E0660F771FFA
:10041000881F991F4A95D1F708958F929F92AF92A6
:10042000BF92CF92DF92EF92FF926B017C010E940C
:10043000E8014B015C01C114D104E104F104F1F0C5
:100440000E94E801DC01CB0188199909AA09BB09BE
:10045000883E9340A105B10570F321E0C21AD1088E
:10046000E108F10888EE880E83E0981EA11CB11CFB
:10047000C114D104E104F10419F7DDCFFF90EF902E
:10048000DF90CF90BF90AF909F908F900895CF92C4
:10049000DF92EF92FF926B017C014DE76FEF84EBEF
:1004A0000E944601C701B6010E9471036B017C01E5
:1004B0000E940D0240E06FEF8FEF0E944601C701DE
:1004C000B6010E940D024FEF60E08FEF0E944601DF
:1004D000C701B6010E940D024FEF60E080E00E946C
:1004E0004601C701B6010E940D024FEF6AEB80E0A2
:1004F0000E944601C701B6010E940D024FEF6FEF47
:1005000080E00E944601C701B601FF90EF90DF90A6
:10051000CF900C940D021F920F920FB60F921124E0
:100520002F933F938F939F93AF93BF93809101013C
:1005300090910201A0910301B0910401309100015A
:1005400023E0230F2D3720F40196A11DB11D05C016
:1005500026E8230F0296A11DB11D20930001809370
:10056000010190930201A0930301B09304018091D3
:10057000050190910601A0910701B0910801019633
:10058000A11DB11D8093050190930601A093070161
:10059000B0930801BF91AF919F918F913F912F919F
:1005A0000F900FBE0F901F901895789484B58260BD
:1005B00084BD84B5816084BD85B5826085BD85B507
:1005C000816085BD80916E00816080936E00109285
:1005D0008100809181008260809381008091810000
:1005E0008160809381008091800081608093800091
:1005F0008091B10084608093B1008091B0008160EF
:100600008093B00080917A00846080937A0080911A
:100610007A00826080937A0080917A008160809372
:100620007A0080917A00806880937A001092C100ED
:1006300085E00E947C0086E00E947C0089E00E94A8
:100640007C0061E085E00E949B0061E089E00E94FF
:100650009B0061E086E00E949B00C6E0C12CD12C8B
:1006600090E8E92E91E4F92EC15049F4C0E0D0E0C1
:10067000C12CD12C8AEFE82E84E4F82E11C0C09250
:100680001501D0921601E0921701F092180160E076
:1006900070E080E891E40E944702E6CF0E940000EB
:1006A000C0921501D0921601E0921701F092180144
:1006B00060E070E08AEF94E40E944702209781F3A3
:1006C000EDCFE9E0F1E08FEF8083818382831382B5
:1006D000148215821682178210861186128613865E
:1006E00008950E94A80388F09F5798F0B92F992782
:1006F000B751B0F0E1F0660F771F881F991F1AF00D
:10070000BA95C9F714C0B13091F00E94C203B1E0AC
:1007100008950C94C203672F782F8827B85F39F0AB
:10072000B93FCCF3869577956795B395D9F73EF4A5
:1007300090958095709561957F4F8F4F9F4F08954D
:1007400057FD9058440F551F59F05F3F71F0479582
:10075000880F97FB991F61F09F3F79F08795089567
:10076000121613061406551FF2CF4695F1DF08C086
:10077000161617061806991FF1CF869571056105A3
:1007800008940895E894BB2766277727CB0197F94B
:100790000895EE0FFF1F0590F491E02D0994F89451
:0207A000FFCF89
:107E0000112484B714BE81FFF0D085E080938100F7
:107E100082E08093C00088E18093C10086E0809377
:107E2000C20080E18093C4008EE0C9D0259A86E02C
:107E300020E33CEF91E0309385002093840096BBD3
:107E4000B09BFECF1D9AA8958150A9F7CC24DD24C4
:107E500088248394B5E0AB2EA1E19A2EF3E0BF2EE7
:107E6000A2D0813461F49FD0082FAFD0023811F036
:107E7000013811F484E001C083E08DD089C08234E0
:107E800011F484E103C0853419F485E0A6D080C0E4
:107E9000853579F488D0E82EFF2485D0082F10E0AE
:107EA000102F00270E291F29000F111F8ED06801E7
:107EB0006FC0863521F484E090D080E0DECF843638
:107EC00009F040C070D06FD0082F6DD080E0C81688
:107ED00080E7D80618F4F601B7BEE895C0E0D1E017
:107EE00062D089930C17E1F7F0E0CF16F0E7DF06D8
:107EF00018F0F601B7BEE89568D007B600FCFDCFD4
:107F0000A601A0E0B1E02C9130E011968C91119780
:107F100090E0982F8827822B932B1296FA010C0160
:107F200087BEE89511244E5F5F4FF1E0A038BF0790
:107F300051F7F601A7BEE89507B600FCFDCF97BE46
:107F4000E89526C08437B1F42ED02DD0F82E2BD052
:107F50003CD0F601EF2C8F010F5F1F4F84911BD097
:107F6000EA94F801C1F70894C11CD11CFA94CF0C13
:107F7000D11C0EC0853739F428D08EE10CD085E9AC
:107F80000AD08FE07ACF813511F488E018D01DD067
:107F900080E101D065CF982F8091C00085FFFCCF94
:107FA0009093C60008958091C00087FFFCCF809118
:107FB000C00084FD01C0A8958091C6000895E0E648
:107FC000F0E098E1908380830895EDDF803219F02E
:107FD00088E0F5DFFFCF84E1DECF1F93182FE3DFCA
:107FE0001150E9F7F2DF1F91089580E0E8DFEE27F6
:047FF000FF270994CA
:027FFE00040479
:0400000300007E007B
:00000001FF
